:020000040000FA
:0600000000000EEF00F00D
:0400080004EF00F011
:080018000CEF00F044D81F0EAC
:10002000C26EC2B2FED705C007F006C008F003C01A
:1000300005F004C006F001C003F002C004F0C3CF15
:1000400001F0C4CF02F001C009F002C00AF009506B
:100050000324096E0A5004200A6E09500524096E13
:100060000A5006200A6E09500724096E0A5008201B
:100070000A6E0990099209940996093A0A980A9A0F
:100080000A9C0A9E0A3A09500A240B6E82909E9698
:10009000210EC96E9EA6FED79E960BC0C9FF9EA6D6
:1000A000FED78280BCD78E0EC16E840EC06EE10E6C
:1000B000926EDC0E936ED00E946E0F0E956E040E43
:1000C000966E880ED56E100E806E200EC66EC00E17
:1000D000C76E000E016E000E026E000E036E000E63
:1000E000046E000E056E000E066E000E076E000E0A
:1000F000086E000E096E000E0A6E000E0B6E01D81F
:1001000012000A0E0F6E3CD80F06FDE18490010E1E
:10011000F76EF00EF66E08008482F5CF83FF8492AE
:100120002FD88482F538836E84922AD80B00F5523A
:10013000F3E11200210E0F6E0F06FEE11200849013
:100140000800F55201E10B008482F5CF83FF849211
:100150008482F538836E8492EDDF84800B00F55243
:10016000F3E1120084908482EFCF83FF8492848233
:10017000EF38836E8492DEDF8480EC50F4E112006D
:10018000F2A4FED7F2CF0EF0F29ED6CF0CF0D7CF6E
:100190000DF0660E0C269E0E0D220DC0D7FF0CC072
:1001A000D6FF0E50800BF212F294120000EE1AF0FD
:1001B000E86A1132E8363009ED6EE9501208F8E1CC
:1001C00000EE12F0C00E126E1B6ACCDF120000EEC1
:1001D0001AF0E86A1132E8363009ED6EE95012087B
:1001E000F8E100EE12F0800E126E1B6ABBDF120007
:1001F000333228010C06000080425954453D20202E
:1002000020000048909090909090909098989898A6
:10021000989898989C9C9C9C9C9C9C9C9E9E9E9E26
:0E0220009E9E9E9E9F9F9F9F9F9F9F9F000060
:020000040030CA
:08000000FFF2F2FEFFFFBBFF5F
:00000001FF
